:0200000270008C
:10500000807F0020BDAE0700E5AE0700E7AE0700D9
:10501000E9AE0700EBAE0700EDAE070000000000B0
:10502000000000000000000000000000EFAE0700DC
:10503000F1AE070000000000F3AE0700F5AE070078
:10504000F7AE0700F7AE0700F7AE0700CF920700F4
:10505000F7AE0700F7AE0700F7AE0700F7AE0700A0
:10506000F7AE0700F7AE0700F7AE0700F7AE070090
:10507000F7AE070069940700F7AE0700F7AE070028
:10508000F7AE0700B5A00700F7AE0700F7AE0700C0
:10509000959D0700F7AE070099780700F7AE070067
:1050A000F7AE0700F7AE0700F7AE0700F7AE070050
:1050B000F7AE0700F7AE0700000000000000000098
:1050C000F7AE0700F7AE0700F7AE0700F7AE070030
:1050D000F7AE0700F7AE0700F7AE070000000000CC
:1050E00000000000000000000000000000000000C0
:1050F00000000000000000000000000000000000B0
:10510000000000000000000000000000000000009F
:10511000000000000000000000000000000000008F
:10512000000000000000000000000000000000007F
:10513000000000000000000000000000000000006F
:10514000000000000000000000000000000000005F
:10515000000000000000000000000000000000004F
:10516000000000000000000000000000000000003F
:10517000000000000000000000000000000000002F
:10518000000000000000000000000000000000001F
:10519000000000000000000000000000000000000F
:1051A00000000000000000000000000000000000FF
:1051B00000000000000000000000000000000000EF
:1051C00000000000000000000000000000000000DF
:1051D00000000000000000000000000000000000CF
:1051E00000000000000000000000000000000000BF
:1051F00000000000000000000000000000000000AF
:1052000010B5054C237833B9044B13B10448AFF300
:1052100000800123237010BDDC2C00200000000062
:105220007CCA0700084B10B51BB108480849AFF30A
:1052300000800848036803B910BD074B002BFBD062
:10524000BDE81040184700BF000000007CCA0700FE
:10525000E02C0020C02C002000000000154B002B8B
:1052600008BF134B9D46A3F5803A00218B460F469D
:105270001348144A121A00F065F80F4B002B00D0A7
:1052800098470E4B002B00D09847002000210400C7
:105290000D000D48002802D00C48AFF3008000F04C
:1052A0002BF82000290000F03DFE00F011F800BFAF
:1052B00000000800807F00200000000000000000C7
:1052C000DC2C0020843A00200000000000000000D8
:1052D00008B5074B044613B10021AFF30080054B1E
:1052E0001868836A03B19847204600F033F800BF7E
:1052F0000000000004C6070070B50E4B0E4CE41A07
:10530000A41000251E46A54204D056F82530984723
:105310000135F8E707F068F9084C094BE41AA410C6
:1053200000251E46A54204D056F825309847013581
:10533000F8E770BDB82C0020B82C0020BC2C002051
:10534000B82C002002440346934202D003F8011B0C
:10535000FAE77047FEE700BF2DE9F04F0388112BF5
:105360008DB0044618D002D8102B05D03DE0122B8A
:1053700033D0502B1ED038E0A64B82881A8000F123
:10538000100303CBA44AA54B1060516000221A7091
:10539000A34BDB894BBB26E09E4BA2484FF6FF7226
:1053A0001A809E4B00221A7004F056FCE8B19C4B08
:1053B0009B690FE09A4DC288EB899A4215D1038A06
:1053C000022B12D1837CDE070DD4964804F044FCF6
:1053D00058B1AB694BB1984707E000F1080303CB24
:1053E0008D4A1060516005F039FA2388212B00F0B6
:1053F0005F8428D8112B3ED018D8012B66D0102BF3
:1054000040F086854FF0A0434FF48022C3F80C256E
:105410004FF40032C3F80825834BA2881A80834AD0
:10542000136823F00203136000F072BD132B3AD00F
:10543000142B40F06D850021A0880A460B4603F02E
:1054400036FF00F03CBC522B00F0008306D8502BF6
:1054500000F00383512B3FD000F05ABD562B2BD0C8
:10546000572B13D0552B40F05385A088172103F0FC
:1054700010FF00F024BC03F08BFE08B104F0CAFE5C
:10548000694B4FF6FF721A8000F042BD684B1B78E3
:10549000012B03D1674A137000F03ABD022B40F094
:1054A000378501F06DFA604B00221888852113467C
:1054B00003F0FFFE00F003BCA379002B40F0288529
:1054C000594B1321188803F0FAFEF8E3564B0021DC
:1054D000188803F0D8FEF2E3A579002D00F01885B6
:1054E00008A800211022FFF72DFF022D40F01085A3
:1054F000514D2289AB899A4240F00A85A37B043B37
:10550000022B40F205859DF82630474E298A3088C7
:1055100043F001038DF82630238AADF82830638AE2
:10552000ADF82A3004F1140302220B9300230593F3
:105530008DF82020ADF8142004AB05AA069303F0E3
:10554000AEFE374668B99DF81030D80709D440F24E
:10555000FD133088ADF8243008A903F09EFE00F05A
:10556000D7BC00263888ADF8246008A903F095FE62
:10557000002840F0CD8405A831460C22FFF7E2FE5A
:10558000207D431E052B00F21B82DFE813F006008E
:1055900015022502AD0019023702638A062B01D0DD
:1055A00001200DE22549E07D4B880B80237E627D42
:1055B00006921B0443EA0023A07D0343607E43EA76
:1055C00000630120824207938DF8140001D0022A63
:1055D00079D11B4802701A4A1478012C02D0022C8F
:1055E00038D072E0002B72D0B3F5807F71D81548A7
:1055F00004F032FB054600287FF440AF124B202216
:10560000187029461148FFF79DFE114B079A1D633C
:105610009A6363E0303A0020583A0020323A002082
:10562000343A0020603A0020B02C002034370020AB
:1056300041350020403500204A370020F82C00205A
:10564000602C002008380020383500200C3600205F
:10565000D4350020002B3AD0C3F30B0232B1A04A5C
:10566000A048526D00681A44824230D1B3F5805F81
:105670002FD89D4A1278002A2DD0994A994C506D06
:1056800024681D18A54226D853645369D46C9464C9
:105690001065106303B913620B79944C944A01337B
:1056A00003F003030B710023CB80236801332360D5
:1056B000904B1B680121184401F0A3FF68B12368D7
:1056C000013B236001E0072408E0052406E00324F1
:1056D00004E0042402E0082400E001240120214623
:1056E00002F00EFD00F014BC834F3B784FF003082E
:1056F000012B8DF8148002D0022B53D0BCE3784BE1
:10570000D96B9A6B91421E4640F05381764D2B78AF
:105710000BB101244EE103F00BFF012840F0AC83F4
:10572000764B93F87C201C46A2B393F88230002B72
:1057300000F0A283D4F83411D4F8382141B33AB33D
:1057400094F8E33023B194F8E430002B40F09283D6
:1057500094F88C00694BD8B1D3F89000342803D169
:1057600013F894EF00200BE00622AEE243F20C0C9B
:1057700053F8048FBCF800C0E04500F0AA82013065
:105780007045F3DBA0E294F88430002B40F0B28245
:1057900004229AE21B7A002B00F06E83584B83F8A8
:1057A000008094E24E4D2A6D6B6D696CD31A99425C
:1057B00040F0FF800020AB6C68646A65EB6403F026
:1057C0005BFA002840F05683464B296D1A689142D7
:1057D00098469ED1454B1B6823B102F049F804F06E
:1057E000C1FCF7E7454E96F8C120032A1CD1454974
:1057F0000A7848781B0C42EA00201B0418433D4BF2
:10580000D8F800201968404B02F0F2F906F1C30104
:1058100000284FF02002F8690CBF01240A2406F08A
:10582000BFFE28B10C2200E00922354B0B241A7070
:105830006F6927B1012F40F01D83344A00E0344ADC
:1058400096F8A910032900F29980DFE801F06502BB
:1058500065224FF440531B78142B89BF43F2140385
:10586000002018682B4B88BFB0FBF3F0214B1B685E
:1058700003F500573F78142F89BF42F21407002325
:10588000DB59244F88BFB3FBF7F3984252D005246D
:1058900075E04FF440531B78142B89BF43F2140377
:1058A000002018681B4B88BFB0FBF3F0114B1B683E
:1058B00003F5005E9EF800E0BEF1140F89BF42F2CE
:1058C000140E002353F80E30DFF848E088BFB3FB16
:1058D000FEF398423AD0012F38D100232B6235E0F5
:1058E000D435002034350020383500203C350020E8
:1058F0002191070030370020602C0020F82C002078
:105900005E37002008C607007C2C0020F8350020F8
:10591000EC35002040420F00012C30D101290BD082
:10592000022910D094606B69012B1BD19C4B002184
:10593000196217E0012C22D1A5239360D6F8AC3070
:105940006B63012409E0AA2393600FE0012C16D1B8
:10595000AC239360D6F8AC306B6319B102390129DE
:1059600007D803E0D6F88830AB6002E0D6F888307C
:10597000EB60AB6C5360D8F8003003E00A240023DE
:10598000936053601360002120228648FFF7DAFC01
:10599000FF21B2228448FFF7D5FC00232B63834B01
:1059A000834801221A7003F067F9002818BF0A24FF
:1059B00000E00824042092E6638A032B02D0022030
:1059C00003218DE6A27D637D43EA0223794A02200A
:1059D00053801380012183E604238DF81430764B25
:1059E0001B78012B06D0022B40F04E826C4B186DB9
:1059F000996C46E26A4BD86B196C42E2638A022BBF
:105A000001D00620DCE7637D06930622012B8DF88A
:105A1000142002D0022B40F03A82674A1370664B82
:105A20001B78012B0AD0022B40F033825C4B4FF4E1
:105A30008050D3F84880D3F8509043E2584B4FF44D
:105A40008070D3F84080D3F83C903BE20021A088DE
:105A50000A460B4603F01FFC31E1584BE2889B8855
:105A60009A4240F055820C2208A80021FFF76AFCF8
:105A7000514A504E127802238DF8203004F1120B57
:105A8000238ACDF824B0012A0A9302D0022A1AD020
:105A9000FAE0434FFC6BBA6B1919914201D93D6C86
:105AA000F4E038191A4659465C3006F089FD0A9927
:105AB000FC6B09980C4407F14002FC6301F0C8FB41
:105AC00005463864E2E03E49354A0978146D956C24
:105AD0009046002900F0DA80B3F5807F00F2D6808E
:105AE0001746526DD8F8441003EB040AC2EB0A02C1
:105AF0008A4200F2CB80194608F1480258460393C7
:105B000001F0A6FB039BB8640546F088294CC8F851
:105B100050A0C218FF2A04F59E7932790CD800EB08
:105B2000022048441A46594606F04AFDE3880A9A7C
:105B30001344E38054466BE0C0F580739BB200EBE6
:105B4000022059461A464844039306F039FD039B48
:105B50000A99E288DFF874B0D8F83000C91A0A91BF
:105B600009991A440B440993164B1968DBF8003065
:105B7000013392B2CBF800302379E280033208443B
:105B8000921009EB0321104B01F0D8FD00BBE28815
:105B9000D8F830301344C8F83030544625E000BF00
:105BA000D43500200C36002030360020413500204E
:105BB00037910700F82C0020602C00204A37002085
:105BC0003835002030370020219107003C35002077
:105BD000DBF80030D8F84C50D8F85440C8F848509A
:105BE000013BCBF80030C8F8504030790A9AAA4FF0
:105BF000013000F0030000233071F38042B109EB63
:105C00000020099906F0DCFCFB880A9A1344FB800B
:105C1000F288DFF884A2002A38D0D8F85430D8F8B7
:105C20003000D8F844109D4FD31A03448B422DD333
:105C30009B4BDFF88C82D3F800E0D8F800309AF85C
:105C4000041001330332C8F80030704409EB01211D
:105C50009210944B01F072FD28B93B6BBAF8062004
:105C600013443B6308E0D8F80030FD6C7C6DBD64E4
:105C7000013BC8F800303C653379013303F003037E
:105C800033710023F38001E000252C467688824F93
:105C9000002E00F03D813B88013B9BB23B80002BF6
:105CA00040F036812046294602F0F6F93E802FE189
:105CB0000022A088089208A9099203F0F6FA0028A9
:105CC00000F02681FFF7DABB0722774B1A700B240E
:105CD00070E694F8A930032B3FF65AAD01A050F8B6
:105CE00023F000BF875707001D5D0700035D070015
:105CF000035D0700684BD3F88800B36898420DD263
:105D00000AE094F88430002B3FF442AD624BD3F8A4
:105D10008800F368984201D80522D6E794F8F0305D
:105D2000DFF87481002B4CD1604B614E18785B78A2
:105D300040EA0320331D01F05BFF002840F09A8009
:105D4000326998F8F1309A4240F0948008F1F201FB
:105D5000F06806F035FC06F0A5F873698146002B63
:105D600000F08A807168002900F08680F268002ABD
:105D700000F082800B4399077ED112F003087BD19B
:105D800020230993052040230BA908930A9304F0CC
:105D90002DFC002870D1B269089B9A426CD1BA6878
:105DA0000B998A4268D130690A99884264D1CDF84A
:105DB000009070697168F36806F078F800285BD08D
:105DC00003E0394B0B241C70F4E53A4E94F8A930EB
:105DD000C6F80080032B3FF6DBACDFE803F0021BC4
:105DE0000B2594F8B830002B3FF4D2AC2A4BD3F8F3
:105DF000BC3017E094F8B030002B3FF4C9AC264B10
:105E0000D3F8B42032602C4BC3F5FC239A4222D93C
:105E10000424CFE594F8AA30002B3FF4B9AC1E4B14
:105E2000D3F8AC30336016E094F8B0201A4B002A57
:105E30003FF4AEAC93F8AA20002A3FF4A9ACD3F803
:105E4000AC10D3F8B4205318336009B90324B1E57A
:105E5000002AFBD0D7E7F8691849202206F0B0FBEA
:105E600030680028F2D002F01BFC0028D0D102F0EC
:105E700003FF18B10A249DE505249BE501242C703D
:105E800098E502F009F943E00320052128E4072101
:105E900000E00521062023E4F82C0020D435002062
:105EA00030370020219107005E37002008C6070028
:105EB000602C00203435002000500700BB2D00204E
:105EC0003C3500203A884FF6FF739A4220D0124B9F
:105ED0001B68DB071CD5114E6023337006237370DB
:105EE000F11C0123B37003F0C3F9033084B23119FC
:105EF000484603F0BDF9204484B23119404603F00E
:105F0000B7F9074BA989221892B2188803F022F931
:105F10000DB0BDE8F08F00BF3437002038370020C7
:105F2000B02C00202DE9F04F4FF0A043B1B0994ABA
:105F3000C3F82C276846C022974906F041FB0DF1B3
:105F4000010300221D461E2A13F8014C93F800E0BD
:105F500058789978DF781E791BD0800040EA4E008F
:105F6000204340EA012102F5E0744FF0A04041EAED
:105F70000741012E40F8241008D002D3022E08D089
:105F80006BE001219140C0F80C1502E09640C0F88A
:105F900008650132202A03F10603D4D14FF0A04353
:105FA0000322C3F87827DFF82092DFF820824FF031
:105FB0008042C3F8082541F288360024D9F8002031
:105FC000334600BF00BF00BF00BF00BF00BF00BF1F
:105FD00000BF42452FD000BF00BF00BF00BF00BFC1
:105FE00000BF00BF00BF00BF00BF00BF00BF00BFB9
:105FF00000BF00BF00BF00BF00BF00BF00BF00BFA9
:1060000000BF00BF00BF00BF00BF00BF00BF00BF98
:1060100000BF00BF00BF00BF00BF00BF00BF00BF88
:1060200000BF00BF00BF00BF00BF00BF00BF00BF78
:1060300000BF00BF00BF013BC3D1584F584B594868
:1060400038601C6002F02FFABA4620B902F00EF94F
:10605000002800F0F18102F0A5F84FF0A0474FF0C2
:1060600080434FF00309C7F87897C7F80835494BC4
:106070004A4DC7F82C3703F065FE02224A484B4EC2
:106080006A604B4AEA604B4A30600C3810604A4AFA
:106090006A614A4A4FF2F0011180494A4FF0010803
:1060A00082F800803E4A00234FF0040AADF8003029
:1060B00085F808A02B74136002F0F5F9002864D16C
:1060C00002F0D4F80446002860D11F20402130227D
:1060D00002F056FB002840F0DB8258E0334B1B688F
:1060E00003EB080213F80830002B00F0DF8232685F
:1060F00012F80810012902EB080300F0DB82012FDF
:1061000000F0DC82012733684FEAC70843440021CE
:106110005A6812685172AA7E5B68002A00F0D58224
:10612000191D00F0D0825B681A7C002A40F0CD82F5
:106130001A745A74234A5A61384607216A4602F093
:10614000C1FC044610BBBDF8001002F095F90146F1
:10615000002840F0B682BDF8000002F0FBF80446CB
:10616000A0B9BDF8001002F057F9044670B9BDF8A7
:10617000001002F037F90146002840F0A282BDF875
:10618000001002F017F90028A8D0044604B304F068
:1061900041F800BF0C0003004CC60700B4320020D9
:1061A000C03500200CC7070018C70700D0350020F5
:1061B00090D00300003800200024744804380020E8
:1061C000063800202D8B0700B42C00200024F4009A
:1061D0008E4E8F4B8F491C704FF4AE72304606F0D6
:1061E000EFF937687A1C06D0301D5821224601F09D
:1061F0002FF8B8420CD0854800214FF4AE72FFF75B
:10620000A1F801230020736002F036FD0028BED102
:1062100003F098FD0028BAD1AB7E002BB7D07E4B9F
:106220001A7C002AB3D11A745A747C4A5A613269B2
:10623000764F43F20803012A1B680BD07A694AB1F2
:10624000BC6904F6FF7424F47F6424F00F041C443A
:10625000243701E01C461837BA68A52A62D002D854
:10626000012A05D07BE0AA2A67D0AC2A6BD076E061
:106270007169664A012972D1D2F824B0126BD7181D
:10628000C2EB0B08B8F5805F38464FF001014FF0C4
:106290000002C14628BF4FF4805901F0B2F903460D
:1062A00000285AD1384621464A4601F047FA0028CC
:1062B00053D103238DE8880068464FEA990302947E
:1062C000039301F09CF90246002846D120460121A3
:1062D00001F097F9002840D1336BDFF830A14B442F
:1062E000336302F0C9FCB8EB09084F444C44C9D1F0
:1062F00043F2080359461868424600F0A9FFDAF84D
:106300002830984204BF0123CAF81C00444804BF47
:10631000CAF82030CAF818B002F0A0FC002002F041
:10632000ABFC0EE0204602F0E7FCB0B9384602F0C4
:1063300095FC3C4802F0A0FC0DE02046394602F0F6
:1063400027FD002408E0204602F0D6FC28B92046AC
:10635000394602F01DFD012410B1012400E00024A3
:106360004FF0A043D3F810351B0503D400F02EFBEB
:10637000012415E04FF08043D3F81C35B12BF5D044
:10638000B36D012B07D1214B0020986502F074FCFE
:106390000028EBD0FBE602F03BFC08B900F016FB4E
:1063A0004FF080430022C3F81C2514B902F030FCE2
:1063B00000BB1D4BC5F82431A833C5F878321B4B00
:1063C0001B4F08221A801423A5F87E32194B002493
:1063D000FF1A85F87C42FF0885F87D429846BC424A
:1063E00000F0968158F83430984700287FF4CFAEFB
:1063F0000134F4E743F208031C6802F0F5FC0028BE
:1064000040F0BD81204601F035FAB8E1D4350020D6
:106410008C37002000F007000838002015740700B2
:10642000F83500203D8C0700DC330020BC3500200F
:10643000DC2C0020D42C002001F0B4FE00287FF4D6
:106440000AAED9F8003000BF00BF00BF00BF00BFD8
:1064500000BF00BF00BF43452FD000BF00BF00BF3B
:1064600000BF00BF00BF00BF00BF00BF00BF00BF34
:1064700000BF00BF00BF00BF00BF00BF00BF00BF24
:1064800000BF00BF00BF00BF00BF00BF00BF00BF14
:1064900000BF00BF00BF00BF00BF00BF00BF00BF04
:1064A00000BF00BF00BF00BF00BF00BF00BF00BFF4
:1064B00000BF00BF00BF00BF00BF013EC3D16022CC
:1064C00068462146FEF73EFF012302228DF8183070
:1064D0008DF81D208DF823308DF829308DF82F3060
:1064E0008DF842308DF844308DF847208DF84830D3
:1064F0008DF84A308DF84D208DF853308DF8593095
:106500008DF85F302746264606236A4603FB07239D
:106510005B79012B04BFBB401E4307F1010708BF95
:10652000B6B2102FF0D19F4801F0BDFF00287FF4D4
:1065300092AD3846C6F3072102F006F900283FF471
:106540008AAD1120F1B202F0FFF800283FF483ADCC
:1065500001F028FE00287FF47EADDAF8000015F87F
:10656000017C95F800B06E7895F8029095F803805C
:1065700001F099FF00287FF46EAD56B90126A640C0
:10658000B6B2314601F048FF00287FF464AD3146D1
:106590000BE0012E0CD1A640B6B2314601F03CFF13
:1065A000014600287FF457AD304601F01BFF0FE095
:1065B000022E7FF450AD0126A640B6B2314601F05E
:1065C00011FF014600287FF446AD304601F024FF5C
:1065D00000287FF440ADBBF1000F04D10121A140A0
:1065E000584689B207E0BBF1010F7FF434AD0BFAD6
:1065F00004F080B2002101F03FFF00287FF42BADB2
:10660000B9F1000F04D10121A140484689B207E049
:10661000B9F1010F7FF41FAD09FA04F080B2002137
:1066200001F0C8FE00287FF416ADB8F1000F04D1C8
:106630000121A140404689B207E0B8F1010F7FF483
:106640000AAD08FA04F080B2002101F0FDFE002836
:106650007FF401AD27B90121A140384689B206E097
:10666000012F7FF4F8AC07FA04F080B2002101F0AA
:1066700089FE00287FF4EFAC01F094FD00287FF440
:10668000EAAC0134102C05F106057FF466AFE4E4B2
:106690001F205146224602F073F800283FF477ADE0
:1066A000C7F80097C7F8088527462CE55378102BC4
:1066B0000DD96CE55878102813D968E501F072FD02
:1066C00063E50C4662E507205FE508205DE50121F2
:1066D0009940002089B201F055FE00283FF407AD33
:1066E00053E59C78102C3FF652ADDA78102A3FF62D
:1066F0004EAD01FA00F301FA04F42343914019432B
:10670000002089B201F03EFE00283FF4F8AC3CE5E1
:10671000254A264C137843F001031370244B254A75
:106720001A60254B04221A600023C5F8883285F8C8
:106730008C3285F88D32B36BCBB102F0F9FEB0B17B
:10674000236A2BB9A3691BB11C4AC2F8803207E047
:10675000F26A164B72B99A6962B15B6AC5F8803207
:10676000D5F8800201F09CFF012385F88432144B98
:1067700000221A7001F07CF803F0F4FCFAE74FF005
:10678000A0434FF08042C3F80C2543F208031C6875
:1067900002F02AFB10B9204601F06CF8002031B05D
:1067A000BDE8F08F0CC70700B5350020D4350020B8
:1067B000A4350020C5680700A0350020B4320020B1
:1067C0005E370020084B5A6E013A5A6622B90749D3
:1067D0000A7822F002020A701B6E034A0133042B6E
:1067E00008BF00231366704794370020B53500209A
:1067F00028DF704729DF704730B5044685B00D4665
:10680000684600211022FEF79DFD237A012B0CD053
:10681000022B12D10123A2898DF80030E389ADF853
:106820000A20D31AADF8083007E000238DF80030B5
:1068300023690293A38AADF80C306368019323683F
:1068400068469B682946984705B030BD38B51B4A55
:10685000516E146E134681B3182505FB04252A7A60
:10686000012A05D0022A23D1A889FFF7C1FF14E02D
:10687000182000FB0433E98A1869AA8A0833521ADF
:106880005B68B2F5806F4FEA81010844B4BF92B2F1
:106890004FF480621944FFF7ADFF112807D1084A71
:1068A000137823F0020343F00403137038BD20B1C2
:1068B00028460921BDE838409EE738BD94370020BE
:1068C000B535002070B52B492B4B0A781C6E12F0A1
:1068D000020F06461D4640D01820022E00FB043051
:1068E00002D0032E29D042E0244B00211970037AF4
:1068F000012B00F1080202D0022B13D037E0C28A2C
:10690000818A8B1AB3F5806FB4BF9BB24FF480635A
:10691000134418229BB202FB04548B42E38226D11B
:10692000002115E0938801339380D38801339BB213
:10693000D38012899A421AD10AE0104A137801339F
:10694000DBB2032B01D8137011E000231370082170
:10695000FFF752FFFFF736FF09E0500707D55B6EE0
:1069600002F0FB020A7013B142F002020A70BDE8A5
:1069700070406BE7B5350020943700209C3500202F
:1069800008B50E4C0E4BE41AE40800251E46A5423D
:1069900004D006EBC5035B68984758B1BFF34F8F2F
:1069A0000849094BCA6802F4E0621343CB60BFF3A5
:1069B0004F8F01E00135EAE700BFFDE7DC2C002046
:1069C000D42C002000ED00E00400FA052DE9F04F82
:1069D000B14B2DED048B1B68012B8BB000F00784AD
:1069E000AE4BAF491B78AF4C012505FA03F24FF0CF
:1069F000A043C3F80C250868294600BF00BF00BFAC
:106A000000BF00BF00BF00BF00BFA0422FD000BF2B
:106A100000BF00BF00BF00BF00BF00BF00BF00BF7E
:106A200000BF00BF00BF00BF00BF00BF00BF00BF6E
:106A300000BF00BF00BF00BF00BF00BF00BF00BF5E
:106A400000BF00BF00BF00BF00BF00BF00BF00BF4E
:106A500000BF00BF00BF00BF00BF00BF00BF00BF3E
:106A600000BF00BF00BF00BF00BF00BF00BF0139B3
:106A7000C3D18D4EC3F8082533681A7A002A00F076
:106A8000B683DA68894C126821781172DB68E26893
:106A90005868019203F0E0F8002840F0A8832846E7
:106AA00007210DF11E0202F00DF8002840F09F832F
:106AB000BDF81E90B9F1000F00F099837C4B029352
:106AC0001A78002A00F09383D4ED017A794D9FED76
:106AD0007A9A9FED7A8A237A8DF82130B8EE677A18
:106AE000D5ED007A237C8DF82000C9EE277A023399
:106AF0009B10072BC8BF07238DF823309DF8233048
:106B00008DF822009B0023748DF824008DF8250059
:106B1000DFED6B8AC7EE277AC7EE887A17EE900A08
:106B200005F0E6FC41EC100B05F02AFB51EC100BD4
:106B300003F0D6FED4ED017AB8EE677AD5ED007A8F
:106B4000C8EEA77A8246C7EE277AC7EE887A17EE94
:106B5000900A05F0CDFC41EC100B05F011FB51EC57
:106B6000100B03F0BDFEBAF10F0FD44628BF4FF053
:106B70000F0C1F28804604D80F2898BF4FF010082C
:106B800001E04FF01F084F4A95ED007ACDF810C094
:106B900002FB0CF207EE902AF8EEE77A434FC7EEBD
:106BA000877A17EE900A05F0A3FC41EC100B05F074
:106BB000E7FA51EC100B03F093FE434A95ED007A8F
:106BC00002FB08F207EE902AF8EE677A8346C7EEDA
:106BD000877A17EE900A05F08BFC41EC100B05F05C
:106BE000CFFA51EC100B03F07BFE82466068CBEBD2
:106BF000000005F0D1FC03906068CAEB000005F0CE
:106C0000CBFC95ED007AD4ED037A0399DDF810C042
:106C100089EE079A8142CDBFC7F804A0C7F804B037
:106C20008DF820C08DF82080F8EE677A87EE899A7B
:106C3000C9EE087A17EE900A05F05AFC41EC100BE9
:106C400005F09EFA51EC100B03F04AFE95ED007A28
:106C5000D4ED037AC8EE878A8246F8EE677AC7EEEB
:106C6000A88AC8EE887A17EE900A05F041FC41EC3C
:106C7000100B05F085FA51EC100B03F031FEBAF160
:106C80000F0FD44628BF4FF00F0C1F2807461DD802
:106C90000F2898BF10271AE0B8320020C432002015
:106CA000B42C00200024F400D0350020942C0020C7
:106CB00006380020C832002000007F4600007A44D9
:106CC0000000FF470006F9000030C8071F27B14A3F
:106CD00095ED007ACDF814C002FB0CF207EE902A75
:106CE000F8EEE77AC7EE877A17EE900A05F000FC17
:106CF00041EC100B05F044FA51EC100B03F0F0FDE1
:106D0000A54A95ED007A7A4307EE902AF8EE677A65
:106D10008346C7EE877A17EE900A05F0E9FB41EC4F
:106D2000100B05F02DFA51EC100B03F0D9FD824643
:106D3000E0689A4A0492CBEB000005F02DFC03902A
:106D4000E068CAEB000005F027FC029B0399049A57
:106D50001B78DDF814C08142D9BF8DF822C0C2F87B
:106D60000CB08DF82270C2F80CA0002B00F0BD8092
:106D70008B4B1B8809EA03034B4500F0B6800023C8
:106D80006361A3618DF824308DF825309DF82010C3
:106D90009DF823309DF8222041BB9DF82110FF294A
:106DA0000BD1BAB9BBB99DF82420AAB99DF825200A
:106DB00092B98DF81D20012421E059B952B953B977
:106DC0009DF8242042B99DF825202AB901248DF888
:106DD0001D4014E052B953B99DF824203AB99DF8EA
:106DE000254024B902238DF81D3008E00AB903229A
:106DF00000E00422B3FA83F48DF81D2064099DF8A5
:106E00001D30042B00F2F381DFE803F003031114BB
:106E10002D000120002101F029FE002840F0E7812B
:106E200008A85E490DF11D0201F0B2F8DFE1012072
:106E30000321F0E70120014601F018FE002840F090
:106E4000D681564D08A829460DF11D0201F0A0F883
:106E5000002840F0CC81002C00F0C9813368DA684A
:106E6000126850601EE094B1002301208DF822309A
:106E7000014601F0FBFD002840F0B981474D08A80C
:106E800029460DF11D0201F083F818B1AFE1012090
:106E90000321EEE7002C00F0AA8133680199DA683B
:106EA00012685160DA68696810686A691144AA69F1
:106EB0000A440260DC6823681B68282164224FF4BE
:106EC000FA70B3FBF2F201FB02334FF400420021EF
:106ED000E2FB03014FF47A72002303F021FD01224B
:106EE0000146606802F0E8FE81E19DF823209DF8EC
:106EF0002130DFED2C8AD4ED057A6FF0030808FB12
:106F0000023307EE103AF8EEC76A95ED007A88EE84
:106F1000877AF8EE677A26EE877A87EE877AC7EE69
:106F2000087A17EE900A05F0E3FA41EC100B05F031
:106F300027F99DF823209DF82130D4ED057A08FB30
:106F400002331B01F8EE676A07EE903AB8EEE77A73
:106F5000D5ED007AC8EEA77A5BEC10AB67EE277A26
:106F6000C6EEA77AC7EE887A17EE900A05F0C0FA47
:106F700041EC100B05F004F951EC100B03F0B0FCE0
:106F80001F28804610D8B8F10F0F98BF4FF0100897
:106F90000CE000BF0006F9000030C807942C002068
:106FA0000438002000007F434FF01F085946504628
:106FB00003F096FC9DF821209DF8233095ED007A92
:106FC0006FF0030A0F280AFB032328BF0F20C3EB2F
:106FD0000323434307EE903AF8EE677A8146C7EE03
:106FE000877A67EE887A17EE900A05F081FA41EC0D
:106FF000100B05F0C5F851EC100B03F071FC9DF877
:1070000021209DF82330D5ED007A0AFB032A4FF4A6
:107010007F6303FB0AFA08FB0AF307EE103AB8EEA7
:10702000477A834687EE277A67EE087A17EE900A4A
:1070300005F05EFA41EC100B05F0A2F851EC100BD4
:1070400003F04EFC824660696B4B0393CBEB000070
:1070500005F0A2FA02906069CAEB000005F09CFA04
:10706000029A039BD4ED067A8242D4BFC3F814B0CF
:10707000C3F814A09DF823209DF82130C8BF8DF8D7
:1070800024806FF0030808FB023307EE103AF8EE95
:10709000C76A95ED007AD8BF8DF8249088EE877A7C
:1070A000F8EE677A26EE877A87EE877AC7EE087A57
:1070B00017EE900A05F01CFA41EC100B05F060F891
:1070C00051EC100B03F00CFC9DF823209DF82130AF
:1070D000D4ED067A08FB02331B01F8EE676A07EE6F
:1070E000903AB8EEE77AD5ED007AC8EEA77A8146F5
:1070F00067EE277AC6EEA77AC7EE887A17EE900A6F
:1071000005F0F6F941EC100B05F03AF851EC100BD4
:1071100003F0E6FBB9F10F0F28BF4FF00F091F284E
:10712000804604D80F2898BF4FF0100801E04FF0B8
:107130001F089DF821209DF8233095ED007A6FF00F
:10714000030A0AFB0323C3EB032309FB03F307EE44
:10715000903AF8EE677AC7EE877A67EE887A17EE8C
:10716000900A05F0C5F941EC100B05F009F851EC57
:10717000100B03F0B5FB9DF821209DF8233095ED11
:10718000007A1D4D0AFB032A4FF47F6303FB0AFAC2
:1071900008FB0AF307EE903AF8EE677A8346C7EEEB
:1071A000877A67EE887A17EE900A05F0A1F941EC2C
:1071B000100B04F0E5FF51EC100B03F091FB82463D
:1071C000A069CBEB000005F0E7F90290A069CAEBDB
:1071D000000005F0E1F9029B8342D9BF8DF82590AC
:1071E000C5F818B08DF82580C5F818A0CEE50BB00D
:1071F000BDEC048BBDE8F08F942C002038B50C4C0E
:10720000616E0429054610D0226E8B18032B88BFAF
:10721000043B18220131616602FB03442046002131
:10722000FEF790F82C60012038BD002038BD00BF6B
:1072300094370020054A137813F0060F04D143F069
:1072400002031370FFF702BB704700BFB535002083
:1072500030B512B11368DB4301E04FF0FF33014456
:1072600088420DD010F8012B53400822054D13F031
:10727000010418BF2C46013A84EA5303F6D1EFE724
:10728000D84330BD2083B8ED10B5084B9A685AB189
:1072900050B9EFF3108272B605491C680C605C6847
:1072A0004C60986002B962B6002010BDC435002061
:1072B00000E100E02DE9F04F0022C9B00C468D5CE2
:1072C000E37843EA0563657843EA0543A57843EA32
:1072D000052308AD0434AB500432402AEFD12A46CE
:1072E0003023916B576A92E860004FEA714484EA58
:1072F000F14484EA91242F443D194FEAF61484EABC
:10730000B64484EAD6012944013B116402F1040227
:10731000E7D1426D0192826D0292C26D0392026EBC
:107320000492426E0592826E0692C26E0792924657
:1073300004AA92E80450D0F85080DDF80CB0029E08
:10734000019F4446274951F8235008A951F82310BA
:1073500005EB01094FEAB21585EAF22585EA72616B
:1073600009EB01052EEA02090CEA020189EA010192
:107370000D4486EA0701AA44214006EA07054D406C
:107380004FEAB40181EA743181EAB45101332944EE
:10739000402B0BEB0A0901EB0A05B346F24606D077
:1073A000E6463E46944627464A462C46CAE7019B97
:1073B0001C44029B44651F44039B87651E44049B39
:1073C000C6654B440366059B1A44069B42666344AC
:1073D0008366079B454473440565C36649B0BDE8B1
:1073E000F08F00BF40C70700094A136810B523F0AB
:1073F000010419B923F00303136002E044F002040E
:107400001460436813B1BDE81040184710BD00BFB9
:10741000A0350020BFF34F8F0549064BCA6802F420
:10742000E0621343CB60BFF34F8F00BFFDE700BFA7
:1074300000ED00E00400FA05F0B50346186880F39B
:1074400008885868FF2464B2EFF30585002D08D141
:10745000EFF31481022221EA020181F31488A64687
:1074600000472546064621273FBAF0B400240025F0
:1074700000260027F0B4F92040B20047F0BD13DF2A
:10748000704761DF704748DF704700200146014ABE
:1074900002F0B2BD257507002DE9F341204B5D6870
:1074A0009C68B5FA85F5B4FA84F46D0964091F4641
:1074B000002D2FD13B7B002B2ED101A8FFF7E3FF3E
:1074C000052808D008B102F0A5FE154B5B681BB17A
:1074D0000198984700E00125D4B93B7B104EDBB9F9
:1074E00002A9D6F81080F38921F8063D4046FFF73F
:1074F000C8FF0528044605D00028E4D1B3684046FB
:10750000984700E00124002DD4D0002CD0D003E017
:1075100015B9CFE7002CE0D002B0BDE8F08100BF84
:10752000A035002008B509B102F074FE034B1B7DA5
:1075300013B1BDE80840AFE708BD00BFA03500208B
:1075400008B502F067FEF0B585B00F468D68694654
:107550000646144602F08BF988B1B86878B17B789A
:1075600003F03003202B03D12846214602F018F9FE
:1075700068462946224602F05BFA019B736005B01B
:10758000F0BD73B50D4601A90646144603F0B5F8E3
:1075900098B1019A511C0FD26B7803F0C003802B75
:1075A0000AD02B79994207D83046214603F0D8F803
:1075B000019B0022E25400E0002002B070BD73B5D0
:1075C0000D4601A90646144603F097F8A8B1019BA1
:1075D000FF2B11D8591C0FD26A7802F0C002802A02
:1075E0000AD02A79914207D82146304601F8013B5A
:1075F0001A4603F0B5F800E0002002B070BD18DFB5
:1076000070472DE9FF41484F3B680546580714462F
:1076100015D59A074CD443F001033B607B7DDB0713
:107620007CD5424B424A93421E4602D3414A934282
:1076300044D302203B6823F001033B6070E0C5F3B4
:107640000B03002B36D10F462A463B4B0220C3F8D2
:107650000405D3F800040028FBD03748C0F80825FB
:10766000D3F800040028FBD0334B0020C3F80405F6
:10767000314BD3F80034002BFAD0013F02F5805291
:10768000E3D105EB0136BCB1394610226846FDF75F
:1076900059FE2D0B01236846360B39468DF8003014
:1076A0000194ADF80850ADF80A60A047384637E0BD
:1076B0000A2035E0062033E0204631E065B3C5F30B
:1076C0000B030BBB33689D4220D31FFA81F872680D
:1076D00005EB08339A4219D3B8F1000F18D0684669
:1076E000FFF78CFDB0B1009B5C601E60009B022226
:1076F0002D0B1A729D81A3F81080FFF79BFD3B684C
:10770000002043F0010398E7062093E7052091E766
:1077100004208FE707208DE703208BE7012089E70E
:1077200004B0BDE8F08100BFA0350020C42C0020CB
:10773000C42C0020D42C002000E001402DE9F043AF
:107740000E4646491C460B6813F0040F85B00546EB
:10775000884610D09F0741D443F001030B604B7D56
:10776000D8076ED53E4B3F498B421F4638D33E4922
:107770008B4235D238E0002E65D0002863D040EA35
:1077800006039B0761D1002A63D0384B0121C3F85F
:107790000415D3F800140029FBD0002156F821303D
:1077A00045F82130314BD3F800040028FAD00131DC
:1077B0009142F3D10021C3F80415D3F80014002935
:1077C000FBD0002674B1684631468DF80060019404
:1077D0000295ADF80C20A04730463BE00A2039E086
:1077E000022037E0204635E06EB365B345EA060374
:1077F00099072AD13B68AB4229D81FFA82F97A68E7
:1078000005EB89039A4222D3B9F1000F21D06846D3
:10781000FFF7F4FC98B1009B5C601F60009B0122A5
:107820001A72DE601D61A3F81490FFF703FDD8F80B
:10783000003043F001030020C8F800300AE00720C0
:1078400008E0012006E0032004E0062002E0052015
:1078500000E0042005B0BDE8F08300BFA0350020A3
:10786000C42C0020C42C0020D42C002000E00140B7
:107870003EDF7047074B4FF0FF3210B5C3F8802052
:107880000446FFF7FCFD18B92046BDE81040D3E5DB
:1078900010BD00BF00E100E008B5064B9A691AB1BF
:1078A000904730B102F0B6FC1B7D13B1BDE8084033
:1078B000F2E508BDA035002060DF704710DF70479B
:1078C000B14B1B78062B0FD1B04B1B6818070BD19F
:1078D000AF4B1B6803F0F002302A00F0D58003F0B4
:1078E000E003402B00F0D080A74B1B78062B0AD179
:1078F000A64B1B68190706D1A54B1B6803F0F003C4
:10790000302B00F0C880A04B1B78062B0FD19F4B6B
:107910001B681A070BD19E4B1B6803F0F002302A3C
:1079200000F0BD8003F0E003402B00F0B880964BE0
:107930001B78062B0AD1954B1B681B0706D1944B6D
:107940001B6803F0F003302B00F0B0808E4B1B78E7
:10795000062B0FD18D4B1B6818070BD18C4B1B6866
:1079600003F0F002302A00F0A78003F0E003402B80
:1079700000F0A280844B1B78062B0AD1834B1B6836
:10798000190706D1824B1B6803F0F003302B00F07F
:107990009D807D4B1B78062B0BD17C4B1B6813F015
:1079A0000F0306D17A4A126802F0F002302A00F082
:1079B0009180754B1B78062B0AD1744B1B681A07F4
:1079C00006D1734B1B6803F0F003502B00F08C8042
:1079D0006D4B1B78062B0FD16C4B1B681B070BD113
:1079E0006B4B1B6803F0F002302A00F0C58003F0F7
:1079F000E003402B00F0C080664AD2F8883043F4A0
:107A00007003C2F88830BFF34F8FBFF36F8F4FF012
:107A10001023D3F80022002A03DBD3F80432002B12
:107A20002EDA5D4B0122C3F80425D3F80024002A86
:107A3000FBD04FF010221521C2F80012D3F8002419
:107A4000002AFBD04FF010231522C3F80422524B1A
:107A5000D3F80024002AFAD00022C3F80425D3F872
:107A60000024002AFBD0BFF34F8F4A494B4BCA6812
:107A700002F4E0621343CB60BFF34F8F00BFFDE71A
:107A8000474B484A1A607047474B484A1B68C3F344
:107A90000423136028E7464B464A1A6033E7464BF7
:107AA000464A1B68C3F34233136040E7444AD36835
:107AB00023F08073D36049E74FF080430022C3F87E
:107AC0000C21C3F81021C3F8382553E73D4B03229E
:107AD0001A605EE73C4A05211160012191679360BD
:107AE0003A4B3F221A6064E74FF08052384BD2F88D
:107AF0000414C3F82015D2F80814C3F82415D2F8DA
:107B00000C14C3F82815D2F81014C3F82C15D2F8A9
:107B10001414C3F83015D2F81814C3F83415D2F879
:107B20001C14C3F84015D2F82014C3F84415D2F839
:107B30002414C3F84815D2F82814C3F84C15D2F809
:107B40002C14C3F85015D2F83014C3F85415D2F8D9
:107B50003414C3F86015D2F83814C3F86415D2F899
:107B60003C14C3F86815D2F84014C3F86C15D2F869
:107B70004424C3F870252BE7164B174A1B6803F003
:107B80004F03136038E700BFE00F00F0E40F00F090
:107B9000E80F00F000ED00E000E001400400FA050D
:107BA000B42C00200090D003240300104035014085
:107BB00074C007400DF0ADBA440200103C0500400F
:107BC000F0ED00E0A00500401056004014560040C3
:107BD00000C0004058020010E40E004010B5012221
:107BE00003680446984710B1A368013BA36010BD29
:107BF00070B5A0B00C46ADF804001646C0B21D46E4
:107C0000002B00F0E780002900F0E4801B68002BC7
:107C100000F0E280052840F0E18002A902F0E6FCD5
:107C2000002840F0DE806B68029A9A4240F0D880CB
:107C300000230022CDE916236B4B18936B4B19934D
:107C40006B4B1A936B4B1B936B4B1C936B4B1D93A2
:107C50006B4B1E9303F17453A3F52303A3F69243D6
:107C600014901F932644B44219D0149B14F8011B9E
:107C700020AA1A440133402B02F8701C1493F2D14D
:107C800004A80146FFF716FBDDE9162312F5007282
:107C900043F10003CDE9162300231493E3E7052005
:107CA00003A99DF8054002F0A1FC002840F099804E
:107CB0006B68039A9A4240F093802E68002E00F081
:107CC0008980149A20AB1344372A04AD4FF0800109
:107CD00002F1010203F8701C2A4406D8531B382B0A
:107CE00013D0002302F8013BF8E7531B3F2B03D8C6
:107CF000002302F8013BF8E728462946FFF7DAFAA5
:107D0000284600213822FDF71DFBDDE916231498D3
:107D10000821E1FB002322FA01F1CDE916238DF8B9
:107D20004F208DF84E10110C120E8DF84C201A0AAF
:107D30008DF84D108DF84B308DF84A2028461A0CDE
:107D400029461B0E8DF848308DF84920FFF7B2FA0E
:107D50003346FCB922461F99D14019701E99D14073
:107D600019711D99D14019721C99D14019731B9931
:107D7000D14019741A99D14019751999D1401976C1
:107D80001899D1400832202A197703F10103E2D172
:107D9000002026E003211898CA00D04018701998D6
:107DA000D04018711A98D04018721B98D0401873A0
:107DB0001C98D04018741D98D04018751E98D0405B
:107DC00018761F980139D0404A1C187703F1010337
:107DD000E1D1DDE70E2004E0102002E0062000E003
:107DE000092020B070BD00BF67E6096A85AE67BB99
:107DF00072F36E3C3AF54FA57F520E518C68059B8D
:107E0000ABD9831F204B21491A68042300BF00BF50
:107E100000BF00BF00BF00BF00BF00BF8A422FD01D
:107E200000BF00BF00BF00BF00BF00BF00BF00BF5A
:107E300000BF00BF00BF00BF00BF00BF00BF00BF4A
:107E400000BF00BF00BF00BF00BF00BF00BF00BF3A
:107E500000BF00BF00BF00BF00BF00BF00BF00BF2A
:107E600000BF00BF00BF00BF00BF00BF00BF00BF1A
:107E700000BF00BF00BF00BF00BF00BF00BF00BF0A
:107E8000013BC3D1704700BFB42C00200024F40094
:107E900007B5084B0246186848B1002301780093E3
:107EA0004068022301F0BCFAB0FA80F0400903B048
:107EB0005DF804FBC035002070B5EFF3108572B695
:107EC0000D4AD468012394B9D3600C4B0C49D3F804
:107ED0008060314051600A49C3F88010D3F88410A3
:107EE00091604FF0FF32C3F88420047000E003700B
:107EF00005B962B6002070BDC035002000E100E089
:107F0000FC06FFBD204B21491A682F2300BF00BF8C
:107F100000BF00BF00BF00BF00BF00BF8A422FD01C
:107F200000BF00BF00BF00BF00BF00BF00BF00BF59
:107F300000BF00BF00BF00BF00BF00BF00BF00BF49
:107F400000BF00BF00BF00BF00BF00BF00BF00BF39
:107F500000BF00BF00BF00BF00BF00BF00BF00BF29
:107F600000BF00BF00BF00BF00BF00BF00BF00BF19
:107F700000BF00BF00BF00BF00BF00BF00BF00BF09
:107F8000013BC3D1704700BFB42C00200024F40093
:107F9000F0B51B4B1B6916461A7A85B005460F468D
:107FA0003AB9587A3278294605B0BDE8F04000F079
:107FB0006FBC012A21D15A7A01929A7ADB7A039313
:107FC000104B02921A889B78ADF800208DF8023091
:107FD00000241DF804203B781A4201AB18BF327808
:107FE00013F8240008BF0122294600F051FC28B9EB
:107FF0000134032CEDD1002000E0012005B0F0BDDC
:10800000C035002040C80700204B21491A68214B89
:1080100000BF00BF00BF00BF00BF00BF00BF00BF68
:108020008A422FD000BF00BF00BF00BF00BF00BF0B
:1080300000BF00BF00BF00BF00BF00BF00BF00BF48
:1080400000BF00BF00BF00BF00BF00BF00BF00BF38
:1080500000BF00BF00BF00BF00BF00BF00BF00BF28
:1080600000BF00BF00BF00BF00BF00BF00BF00BF18
:1080700000BF00BF00BF00BF00BF00BF00BF00BF08
:1080800000BF00BF013BC3D1704700BFB42C00202C
:108090000024F400A0860100174B2DE9F0411E8852
:1080A0004FF6FF739E42884622D0144CD4F87431A8
:1080B000DB071DD5602384F87831032384F87931F8
:1080C00004F27B11012384F87A3101F0D1F80330F6
:1080D00085B204F5BC777919404601F0C9F82A1831
:1080E000B4F89611304692B2BDE8F04101F032B8D2
:1080F0000820BDE8F08100BFB02C0020C035002072
:10810000144B024618884FF6FF73984210B51FD0E3
:10811000114BD3F87441E4071AD50B2983F8792160
:1081200083F87A1104BF93F89E2183F87B214FF0E6
:10813000600404BF002183F89E1183F878410CBFCE
:1081400004220322B3F89611BDE8104001F002B8F2
:10815000082010BDB02C0020C035002007EE101AFA
:1081600007EE900AF8EE476AF8EE677A9FED0B7A11
:1081700027EE877AB4EEE67AF1EE10FA0BD49FED93
:10818000087A67EE877AF4EEE67AF1EE10FACCBF61
:108190000120002070470120704700BF9A99993F45
:1081A000CDCC4C3F30B52F4B1968002958D04A68C8
:1081B000147912684FF0FF30C2F80803D2F80002B9
:1081C0000020C2F80002C2F80005282000FB04329B
:1081D000012582F8C25149680A7900FB0230D0F8C3
:1081E000A00158B10868000B44B2640900F01F00F8
:1081F000854004F120001C4C44F8205008680C799C
:108200004FF0FF35C0F80853D0F800520025C0F8F1
:108210000052C0F80055282000FB043400FB023057
:10822000012590F8C70184F8C25188B90868D0F8D0
:1082300008054FF0A04400F5E07040F2023544F824
:1082400020500968D1F80C1501F5E07144F821506F
:10825000282101FB0232002082F8C201186030BDE3
:10826000012030BDC035002000E100E007B52A4BF9
:108270001868019001A8FFF70BFE08B9012047E03C
:108280000DF10600FFF704FE0028F7D0234B244928
:108290001A6840F6B83300BF00BF00BF00BF00BF80
:1082A00000BF00BF00BF8A422FD000BF00BF00BF89
:1082B00000BF00BF00BF00BF00BF00BF00BF00BFC6
:1082C00000BF00BF00BF00BF00BF00BF00BF00BFB6
:1082D00000BF00BF00BF00BF00BF00BF00BF00BFA6
:1082E00000BF00BF00BF00BF00BF00BF00BF00BF96
:1082F00000BF00BF00BF00BF00BF00BF00BF00BF86
:1083000000BF00BF00BF00BF00BF013BC3D10020C2
:1083100003B05DF804FB00BF43C80700B42C002085
:108320000024F400084238B505460C460ED1202042
:10833000290A220A00F024FA50B1E9B2E2B221205F
:1083400000F01EFA80F00100C0B238BD022038BD36
:10835000012038BD084238B505460C460ED1102024
:10836000290A220A00F00CFA50B1E9B2E2B2112057
:1083700000F006FA80F00100C0B238BD022038BD1E
:10838000012038BD084238B505460C460ED10E20F6
:10839000290A220A00F0F4F950B1E9B2E2B20F2042
:1083A00000F0EEF980F00100C0B238BD022038BD07
:1083B000012038BD084238B505460C460ED10A20CA
:1083C000290A220A00F0DCF950B1E9B2E2B20B202E
:1083D00000F0D6F980F00100C0B238BD022038BDEF
:1083E000012038BD084238B505460C4610D108209A
:1083F00025FA00F124FA00F200F0C2F950B1E9B216
:10840000E2B2092000F0BCF980F00100C0B238BD32
:10841000022038BD012038BD084238B505460C465B
:108420000ED10620290A220A00F0AAF950B1E9B2B9
:10843000E2B2072000F0A4F980F00100C0B238BD1C
:10844000022038BD012038BD38B505460D420C4626
:108450004FF002000DD1290A220A00F091F948B12B
:10846000E9B2E2B2032000F08BF980F00100C0B263
:1084700038BD38BD012038BD38B5054608400C462A
:108480000DD1290A220A00F07BF950B1E9B2E2B21B
:10849000012000F075F980F00100C0B238BD022063
:1084A00038BD012038BD2DE9F84F7B4B1A680646D0
:1084B0009846002A40F0EC8047688468EFF3058313
:1084C000C3F3080393B1103B5AB2002AABBF02F1C9
:1084D000604303F00F0303F56143704AACBF93F8A8
:1084E0000033D35C5B09012B40F2D2803D796A49AD
:1084F000282303FB058303F5E07293F8C291B9F1D9
:10850000000F40F0C080C3F8A891C3F8A091C3F851
:10851000A49183F8C59183F8C491A37BD371637B45
:10852000002B56D022684FF0A04302F5E07240F2D3
:108530000C6143F82210626802F5E07243F82210E1
:108540002268012101FA02F2C3F80825626891400D
:10855000C3F80815226802F5E07240F20D6143F895
:108560002210626802F5E07243F82210FFF74AFC1D
:108570004FF0A04B6268DBF81035D340DB0713D512
:10858000B9F1000F25D063684FF001094FF0A04A00
:1085900009FA03F3CAF80C35FFF734FC636809FAEB
:1085A00003F3CAF8083514E023684FF0010A0AFA09
:1085B00003F3CBF80C35FFF725FC23680AFA03F325
:1085C000CBF80835D144FFF71DFCB9F1090FCFD125
:1085D000D9E723684FF0A04203F5E07340F20C6145
:1085E00042F82310636803F5E07342F8231094E81F
:1085F00006003B68C3F80815C3F80C25A268C3F849
:108600002425282303FB0583D3F8A0312BB3396835
:10861000227B090B4BB2002BA8BF03F160404FEA4D
:1086200053134FEA4212BABF01F00F041B4800F582
:1086300061404FEA8303B4BFD2B2D2B203F16043C8
:10864000B4BF025580F8002303F5614301F01F0118
:1086500001228A40C3F880211A60282202FB058586
:10866000012385F8C23171680B790968C8F8006088
:1086700002FB038305200222C1F8000583F8C22112
:108680000020BDE8F88FD1F8C8310133C1F8C831F6
:108690000120BDE8F88F00BFC035002014ED00E0D8
:1086A00038B543F2080305461968194B1A68A2F554
:1086B000C042521A824229D31648446BC0F8701146
:1086C000012C16D1C36A03F6FF7323F47F6323F0F2
:1086D0000F03D21A95424FF0000202D9446282621F
:1086E0000AE00B4484624262C0F8703100F1380441
:1086F00004E000234362836200F12C042046002141
:108700000C22FCF71FFE2560002038BD042038BD78
:1087100014100010C0350020034B01B919705B68BC
:1087200003B11847704700BF8C37002008B5054BD0
:10873000DB6E042B04D1FFF767FC01F013FDF6E7B5
:1087400008BD00BF8C3700201FB50C4B1B688BB1D8
:108750005A681B788DF80D1000218DF80C000091DF
:108760001046194603AA022300F05AFEB0FA80F020
:10877000400900E0184605B05DF804FBC035002054
:108780002DE9F04751EA020307460CBF0120002003
:10879000114286B00C4616463FD108B101203CE09C
:1087A0001F4B1868C8B306AAD0F8049002F80D7DD4
:1087B00090F800A001250095484651462B4600F050
:1087C0002FFE8046D0B941460C2203A8FCF7BAFD23
:1087D0000DF10A03049399F80420124B8DF80C5004
:1087E0008DF80DA08DF80E50282000FB0230D9F82E
:1087F000001003AA434600F0C9FD08B100200CE0B8
:108800009DF80A3044EA030121EA060199428DF8F5
:108810000A10C3D03846FFF797FF06B0BDE8F087CF
:10882000C03500206037002008B5184A92F8703033
:108830000BB9411C23D01844C0B20128134982F857
:1088400070000CD10BB1002008BD486FFFF72BFE64
:1088500008B101F0DFFC1E20402120220BE000289F
:10886000F1D1012BEFD1486FFFF71DFE0146002823
:10887000EFD11E206022FFF783FF10B9E9E7022045
:1088800008BDFFF78FFC0028DDD0E2E78C37002021
:108890002DE9F047744E8046706F0F461446FFF77F
:1088A00002FE0146002840F0C280012505FA08F5C5
:1088B000ADB284B92946FFF735FD0146002840F0E6
:1088C000B6802946FFF746FD002840F0CA80BDE883
:1088D000F047FFF767BC012C0DD12846FFF73AFDA2
:1088E0000146002840F0A3802946FFF71BFD002821
:1088F000EDD0BDE8F087002F00F086807B7897F8F8
:1089000000901B0243EA094397F8039043EA0903E6
:1089100097F80290B8F1030F43EAC90903D808EBAE
:108920004804293413E0B8F1070F03D808EB880492
:1089300021340CE0B8F10B0F03D808EB48043134B4
:1089400005E0B8F10F0F04D808EB88041934E4B23D
:1089500000E0FF246FEA090ACAF3140A1AEA090FB1
:108960007ED1FF2C7CD019F4600F79D120464FEADC
:1089700019414FEA1A42FFF703FF002841D0601C5B
:10898000C0B2C9F30721CAF30722FFF7F9FE002896
:1089900037D0A01CC0B25FFA89F15FFA8AF2FFF704
:1089A000EFFE70B396F87A303BB1002D39D02E4BE4
:1089B000B3F878302B40AB4233D17B793C79A8F1C6
:1089C000040043EA0424C3B2032BA1B23AD800EB5B
:1089D000800808F138085FFA88F8CB4341F61F7623
:1089E0001E400E423CD1B8F1FF0F39D021F4F853AC
:1089F00023F01F03A3BB4046090A320AFFF7C0FE5B
:108A000028B90120BDE8F0870E20BDE8F08708F105
:108A10000100C0B2E1B206F01F02FFF7B1FE00286C
:108A2000EFD000212846FFF77DFC014610B1084633
:108A3000BDE8F0872946FFF78DFC00283FF447AFDB
:108A4000BDE8F087A8F10C085FFA88F3032B04D87F
:108A500008EB880808F15808BDE74FF0FF08BCE7AD
:108A60000220BDE8F08700BF8C37002070B5134BA3
:108A70001A68C60032440D46526811491268527A8B
:108A800088564A5790421C4606D1206830444368B5
:108A90001B685D72002070BD05DA0120FFF7C4FE7F
:108AA0000028F2D070BD06DD4FF0FF30FFF7BCFEAE
:108AB0000028EAD070BD022070BD00BFD035002074
:108AC00047C8070070B50023174C13802668C30001
:108AD00016F83000F51820B9697801238B4013800F
:108AE00070BD01281DD1CE0742BF6D78A84010800F
:108AF000880707D52068184485780120A840158884
:108B00002843108001F0040101F0FF0051B12168F9
:108B10000B440020D97801238B4011880B4313802C
:108B200070BD012070BD00BFD0350020F7B5364EB6
:108B30003368C5002B4404465F683B685A7A032AB1
:108B40005ED8DFE802F05F021E5F5968B1B14FF4F2
:108B500000404FF4FA720023E0FB0123104619464F
:108B60004FF47A72002301F0DBFE2246014678685A
:108B700001F0A2F8002843D120460221FFF776FF3A
:108B80003DE05A68002A3DD01B68282164224FF43A
:108B9000FA70B3FBF2F201FB02334FF40042002102
:108BA000E2FB03014FF47A72002301F0B9FE224682
:108BB0000146786801F080F810BB20460121FFF7DC
:108BC00055FFE8B9114B586FFFF76DFCC0B933681A
:108BD0001D4420466B681B680DF10602197AFFF7E9
:108BE00071FF014660B9BDF806402046FFF7B2FBB1
:108BF00030B92146FFF7AEFB10B9FFF7D3FA08B141
:108C000001F008FB03B0F0BDD03500208C37002008
:108C100010B5094B186A01280CD1DC695CB143F22C
:108C20000802996910680022FEF712FB031B5842E4
:108C3000584110BD002010BDD435002008B5FFF705
:108C4000E7FF40B104484FF4A021002201F034F8BE
:108C500008B101F0DFFA08BD0838002008B50C2281
:108C60000021FCF76FFB034B00221A635A631A6161
:108C70005A6108BDD435002038B50546194C237813
:108C800023B1FFF7C1F901F06DFAF7E70123237073
:108C90006560FFF74BFD002213480121FEF7B1FC90
:108CA00007280246F5D018B100232370032038BDF1
:108CB0000E4D58212846FEF7CBFA29464FF4AE72E6
:108CC00041F8040D0A4803F07BFCFFF72FFD06482E
:108CD0000749084B5722FEF731FD0728F5D0002839
:108CE000E2D138BD8C37002000F00700D8350020D5
:108CF00028380020198707002DE9F043234E726BB6
:108D0000336B02F6FF75ED1A25F47F6525F00F052C
:108D1000AC0804F6FF7424F47F6485B003F5805733
:108D200024F00F0400EB03080AB1934229D0AC42AF
:108D300082BF05F6FF7424F47F6424F00F044FEA29
:108D40009409012368468DE808010297CDF80C903C
:108D5000FEF755FCB0B9032368468DE88803FEF79B
:108D60004EFC78B9AC42736B8CBF05462D1B5B1B68
:108D700000202744A0443363FFF77EFF002DD6D1A7
:108D800000E0002005B0BDE8F08300BFD43500202E
:108D90007FB5124B5C6B0B6805191C1B0323A408E1
:108DA000009368460E4B01930E4602950394FEF71E
:108DB00026FC30B93046FFF751FF0A48FFF75CFF49
:108DC00009E0684600211022FCF7BCFA68460195CC
:108DD0000294FEF714FC04B070BD00BFD43500202F
:108DE000005007003D8C07001FB500211022684687
:108DF000FCF7A8FA022368460093FEF700FC05B0D2
:108E00005DF804FBA6DF70477DDF704773DF7047B6
:108E100072DF70470023435082B043580193019B97
:108E200002B070472DE9F0470E789DF82070044697
:108E3000894615469A46002E59D1D0F8243192F829
:108E400000803BBBD0F81C31CBB14FF48E71FFF7E3
:108E5000E1FFD4F82431E3B92B78BB4207D21AF8EA
:108E60000330C4F81C352B7801332B7031E09DF8AA
:108E7000242001230AB1E36148E0636129E0D0F8CE
:108E8000083133B34FF48471FFF7C4FFD4F82431B1
:108E90004BB120464FF49271FFF7BCFF0123636191
:108EA00089F8003015E02B78BB4212D2D4F818258F
:108EB0000AF803202B780133DBB27A1E93422B7021
:108EC00003D10223C4F8003201E0BB4201D00123E8
:108ED0002362B84509D1D4F8043133B120464FF4A8
:108EE0008271FFF797FF002610E001260EE04FF495
:108EF0009271FFF78FFF20464FF48E71FFF78AFFC4
:108F000020464FF48471FFF785FFE4E73046BDE863
:108F1000F087F0B585B00C4605461E46084642F27D
:108F200010734FF4827117460393FFF773FF2046C7
:108F30004FF49271FFF76EFF20464FF48E71FFF7EA
:108F400069FF20464FF48471FFF764FF0023012E70
:108F500085F8263085F8233008BF02224FF0010340
:108F60000CBFC4F80022C4F80032236223602B68CF
:108F7000B3B140F28623AB60AB68C4F80433002081
:108F800039E0002301930096204605F1230105F105
:108F900026023B46FFF746FF28B1039B013B0393A4
:108FA000039B002BEDDC95F823300BB9002017E074
:108FB000D4F8C434C4F8C434002BF7D013F0010F34
:108FC00014BF4FF40240032048F2012213F0020FB5
:108FD00018BF104613F0040F48F2022318BF1846BA
:108FE000039B002BDFBF0023C4F800350523C4F822
:108FF0000035D8BF032005B0F0BD2DE9FF410C4678
:1090000005469846084642F210734FF482711646A0
:1090100003939DF82870FFF7FDFE20464FF49271F0
:10902000FFF7F8FE20464FF48E71FFF7F3FE20465F
:109030004FF48471FFF7EEFE0023C4F8003285F888
:10904000263085F8233001232362A36095F826207B
:10905000424508D2B35CC4F81C3595F8263001337C
:1090600085F8263003E00FB1E36100E063612B680F
:10907000B3B140F28623AB60AB68C4F80433002080
:1090800039E0CDF800800197204605F1230105F174
:1090900026023346FFF7C6FE28B1039B013B03932C
:1090A000039B002BEDDC95F823300BB9002017E073
:1090B000D4F8C434C4F8C434002BF7D013F0010F33
:1090C00014BF4FF40240032048F2012213F0020FB4
:1090D00018BF104613F0040F48F2022318BF1846B9
:1090E000039B002BDFBF0023C4F800350523C4F821
:1090F0000035D8BF032004B0BDE8F0815B689A68F2
:10910000054B9A4206D14268836804490132013B0B
:109110000A604B60704700BF4CC807002C2E00202F
:10912000024A1368013B1360704700BF3C350020C2
:1091300008B501F06FF808B5044B02221A70044B11
:109140001B780BB1FDF71CFC08BD00BF41350020AA
:109150004035002030B587B004460D46ADF80620F6
:1091600002A810220021FCF7EDF801238DF80A3047
:109170000DF1060304932046044BADF8085002A9F4
:109180000593FFF73FFE07B030BD00BF3837002022
:1091900030B5354D296811F002018BB05ED1102237
:1091A00001A8FCF7CFF80B230122ADF8023002230F
:1091B0008DF814308DF815208DF8183006225923BB
:1091C0008DF816208DF819300322FE230DF11D00B5
:1091D0000DF102018DF817208DF81A30FFF714FEFB
:1091E000E0B9BDF802100B299DBF4B1C8DF81B3058
:1091F00009230C2395BFC9188DF81B3089B20823A9
:1092000088BF14214FF0000294BF8DF81C308DF8F8
:109210001C3005A8C9B21346FFF7FAFD044600BB8F
:109220008DF8040002908DF80C002823ADF8100092
:10923000214601A8ADF80E30FFF7E8FD80B94FF0E8
:10924000A0434FF40032C3F80C254FF48022C3F83A
:1092500008252B6843F002032B6002E0002400E0A5
:10926000044620460BB030BD3437002013DF704772
:10927000C0F3072308704B70C0F30743000EC8709B
:109280008B700420704766DF704762DF704769DFCC
:109290007047ADDF7047A9DF7047A8DF7047A5DFD3
:1092A0007047A2DF7047A0DF70478FDF704786DF0F
:1092B00070477FDF70477CDF70477ADF704776DF6B
:1092C000704774DF70476DDF70476CDF704730B5F3
:1092D0002A4C2B4894F8203087B004F123010093E6
:1092E00094F82130019304F12602E369FFF79AFD17
:1092F0002546002840D194F82330F3B9207B821E04
:10930000012A1AD8E1692269914216D1A1696269DC
:10931000E37BE261C1F34011032884F8203084F834
:10932000211005D1009120461549FFF766FE23E084
:1093300020461349FFF7EDFD1EE0124A07CA06ACAE
:1093400004E907005BB10E4AD2F8C434C2F8C43451
:10935000980701D5012302E0590702D502238DF8B1
:109360000830002285F82420AA69074B520703D44D
:109370001A68596802A8904707B030BD60370020CE
:10938000003000406C37002060370020F7B51546EC
:109390004FF0FF32C1F8082390F8242004460E460F
:1093A00022B18368C1F80433112037E083F004024E
:1093B000C2F3800213F0080E80F824202DD18361BF
:1093C00000F10C0795E8070087E80700AA7884F801
:1093D00020206A68E2616A78C6F888252A78012A1E
:1093E0000ED012B9C3F3401200E0012284F821200C
:1093F0000092AB786A6820463146FFF7FEFD07E031
:1094000084F821E0204631466A68AB78FFF781FD99
:1094100023681BB984F8243000E0062003B0F0BDB7
:10942000F0B585B004460F46154601A800210C2270
:109430001E46FBF787FF9DF82830227921688DF8BA
:109440000570002B074B8DF806604FF0280000FBDD
:10945000023001AA14BF202300230295FFF796FFD4
:1094600005B0F0BD6037002073B502A8002300F8F6
:10947000063DFEF721FD2A4B1B7803F0FF05002B6C
:1094800047D1284B1A68002A43D0274AD2F808133C
:10949000C9073ED51D601B68244C019302A8019B9F
:1094A000D2F8086500F8055DFEF706FD21686368DF
:1094B00062681F2B98BF5D1C63681F2B94BF01332C
:1094C00000238D42636006D1184B1B681F2B94BF8D
:1094D000013300232360A31822681E7363689DF87C
:1094E0000300934238BF21339B1AA2689A423CBFC3
:1094F0000E4A9360FDF7C8FE226863681F2B94BF75
:1095000001330023934201BF074A0123C2F8083305
:1095100053609DF80200FDF7B7FE02B070BD00BFBA
:10952000B435002000D1004000D000408439002034
:1095300070B50D4B0D4C9A6B0D4E0E4D0E492163BF
:109540005C3363630D4BE3630D4BA2633046002233
:1095500029461A605A6000F023F904F130003146C0
:109560002A4600F065FA70BDD43500208439002009
:10957000C4C80700002D00201DA60700FD900700AD
:109580002C2E00202DE9D34F14466946082201F005
:10959000E7F890B39DF801609DF802809DF805A062
:1095A0000027002332023B434FEA0846002732439C
:1095B0003B439DF800609DF8038000273B439DF8E6
:1095C00004704FEA0A2932439DF806A04FEA086664
:1095D00032433B43002643EA090332434FEA0A4938
:1095E0009DF807A0324343EA090332434FEA0A6970
:1095F000324343EA0903C4E9002302B0BDE8D08F37
:1096000013B5144601A9042201F0AAF870B19DF81F
:1096100006309DF805201B0443EA02239DF8042030
:1096200013439DF8072043EA0263236002B010BD94
:10963000F7B50F466946164601F030F850B3DDE93C
:109640000045002304F001026D084FEA340413437F
:109650001CBFE443ED43E8B13B79082B02D1C6E9D6
:10966000004517E0042B02D1346022460AE0022BA9
:1096700003D1A3B233801AB204E0012B09D1E3B2C3
:1096800033705AB2D317AB4206BFA242012000206A
:1096900000E0002003B0F0BD37B50D466946144622
:1096A00000F0FCFF20B32B79082B04D1DDE9000189
:1096B000C4E9000113E0042B03D1DDE900012060BF
:1096C0000CE0022B03D10098208080B206E0012B31
:1096D0000DD1DDE90001207000F0FF000021DDE97F
:1096E0000023994206BF90420120002000E00020A4
:1096F00003B030BD37B50D466946144600F0CEFFC5
:1097000020B32A79082A04D1DDE90023C4E9002323
:109710001CE0009B042A18464FEAE37103D1236042
:109720001A460B460BE0022A03D19BB223801AB2E1
:1097300004E0012A09D1DBB223705AB2D3178B425D
:1097400006BF82420120002000E0002003B030BDAF
:1097500013B50446052920D8DFE801F0070F121FD2
:109760001F1C9DF90430002B18DA204601A90122A4
:1097700000F0F6FF0028F4D110E00021082206E0F6
:1097800001A900F0BAFF48B1019A2046002100F07B
:10979000E7FF03E000210422F9E7002002B010BD3A
:1097A0007FB503460A466846194601F003F830B112
:1097B000684600F007F8684601F00DF8F7E707B0D3
:1097C0005DF804FB30B54268527802F00F010829B9
:1097D00087B003461ED103691C68002C45D00023C6
:1097E0002373236862689D686846294600F0E2FF9B
:1097F0006368049304F10C0305936B7803F0C003D2
:10980000802B08BF231D684608BF0493FFF7DAFFCB
:10981000A468E2E712F0C00109D102F0300010287C
:1098200002D15A6911700CE090060AD506E0802931
:109830001BD1006900219206016016D55B69197081
:1098400013E05A68517801F00F01072904D190689C
:109850001969FFF7A5FF08E091681869127911B13D
:1098600002F0AEFE01E0FBF76DFD07B030BD73B551
:109870000D4601A9044600F040FF064608B900263F
:109880000AE094E80F0085E80F0001998A42F6D3B8
:10989000A960A3685B1AA360304602B070BD2DE9D1
:1098A000F04357687B7813F0C00C89B006468E46AB
:1098B000144603D0BCF1400F66D0B0E003F00F02B5
:1098C000594903F03003102B51F822500AD004D824
:1098D000002B40F0A480394608E0202B09D0302B23
:1098E00040D09CE0636901221A7061682269A84730
:1098F00096E0BEF1020FD4F8148023D1042A21D8B7
:1099000004A9FFF7B4FF002800F08980069B93B1FB
:10991000616898F800204B7993420CD90F7923693C
:1099200004A807FB0232A84730B198F80030013391
:1099300088F80030EAE70120059B7360069B002B46
:109940006ED06CE098F800307979226997F804E0DD
:10995000994264D9591C88F80010304661680EFBA2
:109960000322C4E7636939781970072A0AD163684A
:1099700020691A796146FBF7E5FC636821699868FC
:10998000FFF70EFF3046B0E717693B6807F104099F
:1099900013B9FFF7DDFE43E0022911D104A9FFF757
:1099A00066FF00283BD03B68616804A84A46984798
:1099B000002834D0069B002BF5D1059B73602FE067
:1099C000012919D007D3052929D101A9042200F0C2
:1099D000C7FE042515E000250DF1040801350B2D07
:1099E0001DD030464146012200F0BAFEB8B118F948
:1099F000013B002BF2DB05E001A9082200F0B0FEDC
:109A0000082568B1094B049301AB05930023069523
:109A100007933B68616804A84A46984700E0002025
:109A200009B0BDE8F08300BF88C907001DA6070084
:109A30002DE9F0478EB00027044602A80097019751
:109A400000F0B8FEA368002B44D0204608A900F01F
:109A500054FE18B9A368002B3CD033E0089E002EBA
:109A600038D0039D4FEAD60806F00706039B1A7804
:109A7000424529D002A800F0AEFE039BAB42F5D1CF
:109A8000B8455CD3039A537803F00F03082B4BD1EE
:109A90001778B84553D3069BD4F808901D68A3687F
:109AA000002D4AD0994548D12B68D3F800C0BCF1AD
:109AB000000F6CD02046294642463346E047002836
:109AC00040F08580002084E05B7803F00F02082AD4
:109AD000D0D039E0039B049C5D7802A800F07BFEA7
:109AE0000028F7D115F0300F03D1039B1B7803B189
:109AF0000134BCB162090023934205D05DF8231004
:109B00000131DFD10133F7E70EAA02EB830304F042
:109B10001F04C4F120044FF0FF3253F8383CE240F8
:109B20009342CFD1012054E002A800F054FE039BE1
:109B3000AB42A7D14FF0FF3701E0994582D12046D3
:109B40003146FFF705FE1EE013F0300F0FD1049BE6
:109B50003F2B0CD85A090EA901EB820203F01F0318
:109B60000121994052F8383C0B4342F8383CE568F3
:109B700025B120464146324602ABA8472046314631
:109B800002AAFFF78CFE00287FF45CAF9AE7D3F8B7
:109B900008A09AF80030434519D151466A6808A8D0
:109BA00000F008FE6B680C9305F10C030D939AF816
:109BB000013003F0C003802B04BF2B1D0C93012345
:109BC0002B732046314608AAFFF769FE77E7AD6898
:109BD00065E70EB0BDE8F087094A53789178013304
:109BE000DBB2994208BF0023117899421FBF03706E
:109BF0005378182000FB032014BF04300020704766
:109C0000CC32002038B50C4B0C4C4FF40032C3F86A
:109C1000802001254FF48033C4F84833C4F808335A
:109C20006560FEF76FF9A560054C00252560FEF71D
:109C300069F9257138BD00BF00E100E00010014066
:109C4000C4390020082910B501D000F0E3FA0368F8
:109C50004068BDE81040184773B5154EB378054607
:109C600013B308B34369FBB10024047402A800F8DD
:109C7000014DFEF721F90DF10600FFF7ADFF30B100
:109C8000022303709DF806304560737000E00424E1
:109C90009DF80700FDF7F8FA24B9064B4FF480123F
:109CA000C3F80021204600E0082002B070BD00BFCC
:109CB000CC32002000E100E02DE9F7431E4FBB78D5
:109CC00005460E4690469BB390B304292ED94369AE
:109CD00073B3437C02A80024012B00F8014D0CBF94
:109CE0008946A146FEF7E8F80DF10600FFF774FF7C
:109CF00078B101230370114B4560D3F804358360BC
:109D00009DF80630C660C0F81090C0F814807B70D3
:109D100000E004249DF80700FDF7B6FA24B9084BCB
:109D20004FF48012C3F80021204602E0072000E033
:109D3000082003B0BDE8F083CC32002000100140C1
:109D400000E100E010B5FFF75DFF0F4B00200B2294
:109D50009A70187058700D4A0D4B4FF48011E02422
:109D6000986018735873C2F8801182F81443116018
:109D700001F18041A1F56F21C1F8080582F8114376
:109D8000D1F804251A6010BDCC32002000E100E0BB
:109D9000C43900202DE9F84F924D2B7B6A7B2C684B
:109DA0009A422CD00133DBB2022B08BF00232B7365
:109DB0002B7B05EB8303002619690B1923F07F43E6
:109DC0002B60AB683046BBB11A68914203D2521A7D
:109DD000AB601A6011E0DF68D3F81CE0891A104408
:109DE00000221A6037B1021922F07F42DE615A6008
:109DF0009F601E467346E6E7AB60012701E0002640
:109E00003746D5F808804FF0000956B13446F66958
:109E10002EE0D5F808A05346D346002B61D100238D
:109E2000237471494B780A7893420B4665D08C783D
:109E3000501CC0B28442087008BF0E70182101FB8C
:109E400002331A799C68022AE3D0032A47D0012AF8
:109E5000E7D1217C0029E4D1DA6862601A69A26046
:109E60005A69E26010339B68A3612B7E03B1616085
:109E700060682A68831A23F07F415C4B9942A3688B
:109E800001D80B4406E0121A22F07F4293428CBFA5
:109E90009B1A0023A9682360012200236360A3604A
:109EA0002274E3614F4831B122680B689A4204D8AA
:109EB0009A1A0A60E1618460A7E70B46186882423B
:109EC00005D9121AD869194628B10346F6E7801A4F
:109ED000186018460B462260E061DC6195E7AB68CC
:109EE00004E0A34262D09B46DB6996E71BB10022E7
:109EF0001A74DB69FAE7AB6093E7B9F1000F04D19C
:109F0000AB68434501D1002F4CD0AB68DFF8D4904B
:109F1000002B45D0364ED9F80040D6F80485D3F84A
:109F200000B099F80430C4EB080727F07F470337E7
:109F30009BB9304A4FF480334FF400314FF0010A9F
:109F4000C6F84433C6F80433C2F880111160C6F86D
:109F500000A0FDF7D7FF89F804A05F452CBFE319E7
:109F600004EB0B0323F07F44C6F84045D6F80435D4
:109F70001F4AC8EB030323F07F43C8EB04040333F9
:109F800024F07F44A3420DD9D2F80435C2F84035FD
:109F9000FDF7B8FF174B4FF40032C3F8002101E082
:109FA000FFF730FE00232B76BDE8F88FA3450BD1D9
:109FB000DAF81C300B4AAB6033B90D4801218160DF
:109FC00013601176FDF79EFFE2692168CBF81C2033
:109FD00012B113680B441360AB689A4518BF4FF079
:109FE00001091CE7C4390020CC320020FEFF7F00AD
:109FF0000010014000E100E02DE9F743064602A809
:10A00000002400F8014D0D461746FDF755FF234B80
:10A01000234A18781178CBB2224909888B4238BF7D
:10A020000133C0B238BFDCB2844209D0147813784F
:10A03000DBB28B423ABF0133DBB20023137001E085
:10A040004FF6FF749DF80700FDF71EF94FF6FF73FA
:10A050009C421FD0DFF85890D9F800304FEAC4086E
:10A0600003EB080243F834708EB185B10E4B1888AB
:10A070000E4B1B68314600FB04302A4602F0A0FA62
:10A08000D9F8003098440020A8F8045003E00020DC
:10A09000908000E0042003B0BDE8F083313500205B
:10A0A0003035002032350020BC3500202C35002012
:10A0B000D8330020F7B52649264E0022C1F84021AA
:10A0C000C1F84421C1F84821C1F84C21C1F8002150
:10A0D000C1F80421B368002B38D0D1F804153468D6
:10A0E0000C1B24F07F4415461A6894421AD3A41A14
:10A0F00015441A7CDF6992B100221A745A699B696F
:10A100000193154B00921B88072B01D800F082F8B1
:10A1100068460821114AFFF76FFF0028F6D10FB1FA
:10A120003B46E1E7317B727B0A4B8A4205D1013223
:10A13000D2B2022A08BF00225A73737B06EB830354
:10A140004FF480121D61064BC3F8002103B0F0BD2F
:10A1500000100140C4390020BC350020459C070098
:10A1600000E100E070B5114C114A237812789A4250
:10A170001BD023780F48104A068812680F48DBB2BC
:10A1800019B202EBC105006852F83120A98806FB1C
:10A19000030090470A4A23781288DBB29A4286BFAE
:10A1A0000133DBB200232370DDE770BD31350020C1
:10A1B00030350020BC350020D83300202C3500205D
:10A1C00032350020104B18884FF6FF73984210B5B7
:10A1D00004D01321FFF773F888B110BD0B4C23682E
:10A1E0009B070CD5FFF76DF868B94FF0A0434FF40B
:10A1F0000032C3F80825236843F0020323600448B3
:10A20000FFF72AFD002010BDB02C002034370020BD
:10A21000603A0020BFF34F8F0549064BCA6802F42D
:10A22000E0621343CB60BFF34F8F00BFFDE700BF79
:10A2300000ED00E00400FA052DE9F0434FF0A043E3
:10A240000322C3F84427C3F848274FF40032C3F869
:10A2500008254FF48022C3F80825A74B95B018684D
:10A260000490FEF7C1FD002866D1A448FEF7FEFF6A
:10A27000002861D1A24BA34A1A60A34B50221A8036
:10A28000A24BA34A1A60A34B1C68C4F340341CB110
:10A290004FF40052C3F8802004A89F49FDF70EFB3D
:10A2A0009C4A20B17CB34FF4005313602BE09B4BCE
:10A2B0000121197092F816335B09991E052922D8DD
:10A2C000043B012B1FD9964B9968002900F073813C
:10A2D0001A6842F480021A60924B0193019D00219A
:10A2E0000C220DA8FBF72EF801238DF83430402006
:10A2F00000230DA92A468DF835308DF83630FEF74B
:10A30000C6FF044608B1FFF785FF21460C220DA8C1
:10A31000FBF718F89DF83430A02064F300030DA972
:10A320002A468DF83430FEF7B2FF0028EBD114A88E
:10A3300040F8305DFDF7C0FA0446002840F03F8148
:10A34000794B7A4A1A609DF810300D90012262F321
:10A3500003030E9062F3071308A88DF81030FEF780
:10A36000B2FF38B99DF8213008A801338DF82130AB
:10A37000FEF7ABFF0446002840F021816C4802F054
:10A380002AF96B4982B204A8FEF795FF70B90C2335
:10A39000ADF834301823ADF836300DA84FF4C8733B
:10A3A000ADF83840ADF83A30FEF787FF0446002894
:10A3B00040F005815F4B4FF6FF7214A91A804FF6EB
:10A3C0005963012021F8483D5B4A8DF80A00FEF7E9
:10A3D0006AFF002840F0B880584B04AC03F1100528
:10A3E00018685968224603C20833AB421446F7D1B5
:10A3F000534E04A83146FEF748FF0446002840F0BB
:10A40000A48021461C224FF014090DA8FAF79AFFE8
:10A4100021464A4608A8FAF795FF9DF83430ADF872
:10A420000040374643F004038DF8343017F8023902
:10A430008DF80E3002234FF00108ADF80C30230ADE
:10A4400068F3030368F3420468F30713E4B28DF87A
:10A45000013044EA080403AD36F8020C8DF80240DE
:10A460000DA908AA3B1D0895CDF824D0ADF82C9075
:10A47000FEF717FF0446002840F0A18021461C2269
:10A480000DA8FAF75FFF21464A4608A8FAF75AFFD7
:10A490009DF83430ADF8004043F018038DF83430A7
:10A4A000BB788DF80E30230A204668F3030368F367
:10A4B000071368F342008DF80130C4B2172344F04B
:10A4C0001104ADF82C3036F8020C8DF802400DA9BD
:10A4D00008AA07F10C03ADF80C800895CDF824D03C
:10A4E000FEF7DFFE0446002869D1164A136843EAE6
:10A4F000080313602BE000BFACC907000050070041
:10A50000B0350020E0390020AE350020B8350020FD
:10A510008B74070000E100E041750700B4350020AE
:10A52000C4350020002C0020A83500205953070016
:10A53000C0C90700B02C00204A370020B0C907006E
:10A540004C370020343700200446002C37D100213E
:10A550001C220DA8FAF7F6FE40F6CD430E934FF4F9
:10A5600080430F9303238DF84030174B13930DADA9
:10A570000FCD164E0FC695E80700154B86E807006D
:10A5800014481C7000F09CF988B9134B4FF6FF7209
:10A590001A80124B1C70124B9B7853B1114B1A7CD2
:10A5A0003AB9114A1C745C745A61FEF7F1FD044615
:10A5B00005E0082403E04FF4800313608CE6204696
:10A5C00015B0BDE8F08300BF31910700343A002098
:10A5D000803A0020503A0020303A0020323A0020E1
:10A5E000CC320020603A002041A60700013806283E
:10A5F00011D8DFE800F004100406080A0C00142348
:10A6000006E01C2304E0202302E0302300E0402386
:10A610000B600020704706207047000043681A4412
:10A62000426039B10139934204D013F8010B01F8AB
:10A63000010FF8E70120704776DF704775DF70473C
:10A6400037B5154C20884FF6FF739842254620D029
:10A65000A378227C0133DBB29A42A37007D304F1C2
:10A660002001FFF7EBFFA0B1E3698BB911E00023F4
:10A67000A370237D33B13B21FFF7DEFF10B1E36907
:10A6800003B19847AB6923B102A8002200F8042D5A
:10A69000984703B030BD00BF303A00202DE9F347A2
:10A6A00081468A46002600270024D9F808300BB9D5
:10A6B00000251EE048460DF10701FDF78FFA05461B
:10A6C0000028F5D09DF8078008F07F002246C0B230
:10A6D000002100F0F9F818F0800F46EA000647EA7A
:10A6E000010704F1070402D0462CDED1E0E7CAE9F5
:10A6F0000067284602B0BDE8F0872DE9F341836882
:10A70000074688460BB9002626E00DF10701FDF744
:10A7100065FA06460028F6D09DF80740220619D5AE
:10A7200004F07F040725BB68002BECD038460DF100
:10A730000701FDF753FA0028E5D09DF8072002F045
:10A740007F03AB401C43130605F1070502D5232DFB
:10A75000E9D1D8E7C8F80040304602B0BDE8F08142
:10A7600030B5044685B0154689B90268104B9A4247
:10A770000DD0102D2046694605D91022FFF7F0FFB5
:10A7800098B1103DF5E72A46FFF7EAFF0DE0A36810
:10A79000AB4201D2002008E0236820462A469847B1
:10A7A0000028F7D0A3685D1BA56005B030BD00BFD1
:10A7B0001DA607000023C2600160416083608B78A2
:10A7C0001A44026191F903301A444261087800305A
:10A7D00018BF0120704710B5426811780346002960
:10A7E0003AD002F10C014160147B2CB90168C268B7
:10A7F000FFF7E0FF204610BD5178107901F03004DA
:10A80000302C0AD1547B04F03004302C05D19078E0
:10A810001969091A196100200CE001F0F004202CDC
:10A8200003D1517911FB00F004E001F0C00180294F
:10A8300008BF0420517811F0300F02BF9968013130
:10A840009960917B014418690144196192F90F20C4
:10A8500011445961012010BD084610BD73B5174C55
:10A86000638D228C9A420ED8628C9A420BD3A369D4
:10A8700023B102A8012200F8042D9847002384F890
:10A88000503002B070BD94F850200C4D2AB1AB6925
:10A89000002BF3D002A80022EDE7A968EB68AE78A0
:10A8A00005F13000002E18BF1946FFF705FA002801
:10A8B000E4D0EB69002BE0D1E0E700BF303A0020A4
:10A8C0007BDF70477ADF70479140031C90409C46C5
:10A8D000203A9340194352426346D340194370478C
:10A8E0004A0011D212F5001211D20DD56FF478730F
:10A8F000B3EB62520ED44FEAC12343F0004343EA64
:10A90000505323FA02F070474FF00000704750EAAE
:10A91000013002D14FF0FF3070474FF00000704718
:10A9200053B94AB9002908BF00281CBF4FF0FF31B6
:10A930004FF0FF3000F03CB882B0EC462DE90050FB
:10A9400000F01EF8DDF804E002B00CBC704700BF58
:10A950002DE9F041069C154606460F46984600F044
:10A9600029F805FB01F300FB0838A5FB0023B21A08
:10A97000434467EB0303C4E90023BDE8F08100BF53
:10A980002DE9F041069C904606460F461D4600F014
:10A990005FF900FB05F5A0FB082308FB0155B21A7F
:10A9A0002B4467EB0303C4E90023BDE8F08100BF3B
:10A9B000704700BF00292DE9F043C0F2A6800026B1
:10A9C000002BC0F29C80884694469E46154604465D
:10A9D0000F46002B3DD18A4259D9B2FA82F33BB1DE
:10A9E000C3F120029F4020FA02F29D4017439C4091
:10A9F000290C220CB7FBF1FEA8B201FB1E7742EA3C
:10AA0000074700FB0EF3BB420AD97F190EF1FF3254
:10AA100080F00581BB4240F20281AEF1020E2F446C
:10AA2000FF1AA4B2B7FBF1F301FB137744EA07471F
:10AA300000FB03F0B84208D97F1903F1FF3280F020
:10AA4000F080B84240F2ED80023B43EA0E43002220
:10AA500003E08B420FD900221346341C18BF012497
:10AA600060424FF0000565EB450158405140001928
:10AA70006941BDE8F083B3FA83F2002A40F0868092
:10AA80008B4202D3844500F2DB800123E5E712B953
:10AA90000123B3FBF2F5B5FA85F000283BD1781B12
:10AAA0004FEA154E1FFA85FC0122B0FBFEF8210C7F
:10AAB0000EFB180741EA07470CFB08F3BB4207D916
:10AAC0007F1908F1FF3102D2BB4200F2BD808846F7
:10AAD000FF1AA4B2B7FBFEF30EFB137744EA074755
